{
  "_format": "hh-sol-artifact-1",
  "contractName": "LinkDotContract",
  "sourceName": "contracts/LinkDotContract.sol",
  "abi": [
    {
      "inputs": [
        {
          "internalType": "uint256",
          "name": "_unlockTime",
          "type": "uint256"
        }
      ],
      "stateMutability": "payable",
      "type": "constructor"
    },
    {
      "anonymous": false,
      "inputs": [
        {
          "indexed": false,
          "internalType": "uint256",
          "name": "amount",
          "type": "uint256"
        },
        {
          "indexed": false,
          "internalType": "uint256",
          "name": "when",
          "type": "uint256"
        }
      ],
      "name": "Withdrawal",
      "type": "event"
    },
    {
      "inputs": [
        {
          "internalType": "uint256",
          "name": "someData",
          "type": "uint256"
        }
      ],
      "name": "claim",
      "outputs": [
        {
          "internalType": "address",
          "name": "",
          "type": "address"
        }
      ],
      "stateMutability": "nonpayable",
      "type": "function"
    },
    {
      "inputs": [],
      "name": "owner",
      "outputs": [
        {
          "internalType": "address payable",
          "name": "",
          "type": "address"
        }
      ],
      "stateMutability": "view",
      "type": "function"
    },
    {
      "inputs": [],
      "name": "unlockTime",
      "outputs": [
        {
          "internalType": "uint256",
          "name": "",
          "type": "uint256"
        }
      ],
      "stateMutability": "view",
      "type": "function"
    },
    {
      "inputs": [],
      "name": "withdraw",
      "outputs": [],
      "stateMutability": "nonpayable",
      "type": "function"
    }
  ],
  "bytecode": "0x6080604052600080556040516105e53803806105e5833981810160405281019061002991906100ba565b80600081905550600160008190555033600160006101000a81548173ffffffffffffffffffffffffffffffffffffffff021916908373ffffffffffffffffffffffffffffffffffffffff160217905550506100e7565b600080fd5b6000819050919050565b61009781610084565b81146100a257600080fd5b50565b6000815190506100b48161008e565b92915050565b6000602082840312156100d0576100cf61007f565b5b60006100de848285016100a5565b91505092915050565b6104ef806100f66000396000f3fe608060405234801561001057600080fd5b506004361061004c5760003560e01c8063251c1aa314610051578063379607f51461006f5780633ccfd60b1461009f5780638da5cb5b146100a9575b600080fd5b6100596100c7565b6040516100669190610296565b60405180910390f35b610089600480360381019061008491906102e2565b6100cd565b6040516100969190610350565b60405180910390f35b6100a76100de565b005b6100b1610257565b6040516100be919061038c565b60405180910390f35b60005481565b600081600081905550339050919050565b600054421015610123576040517f08c379a000000000000000000000000000000000000000000000000000000000815260040161011a90610404565b60405180910390fd5b600160009054906101000a900473ffffffffffffffffffffffffffffffffffffffff1673ffffffffffffffffffffffffffffffffffffffff163373ffffffffffffffffffffffffffffffffffffffff16146101b3576040517f08c379a00000000000000000000000000000000000000000000000000000000081526004016101aa90610470565b60405180910390fd5b7fbf2ed60bd5b5965d685680c01195c9514e4382e28e3a5a2d2d5244bf59411b9347426040516101e4929190610490565b60405180910390a1600160009054906101000a900473ffffffffffffffffffffffffffffffffffffffff1673ffffffffffffffffffffffffffffffffffffffff166108fc479081150290604051600060405180830381858888f19350505050158015610254573d6000803e3d6000fd5b50565b600160009054906101000a900473ffffffffffffffffffffffffffffffffffffffff1681565b6000819050919050565b6102908161027d565b82525050565b60006020820190506102ab6000830184610287565b92915050565b600080fd5b6102bf8161027d565b81146102ca57600080fd5b50565b6000813590506102dc816102b6565b92915050565b6000602082840312156102f8576102f76102b1565b5b6000610306848285016102cd565b91505092915050565b600073ffffffffffffffffffffffffffffffffffffffff82169050919050565b600061033a8261030f565b9050919050565b61034a8161032f565b82525050565b60006020820190506103656000830184610341565b92915050565b60006103768261030f565b9050919050565b6103868161036b565b82525050565b60006020820190506103a1600083018461037d565b92915050565b600082825260208201905092915050565b7f596f752063616e27742077697468647261772079657400000000000000000000600082015250565b60006103ee6016836103a7565b91506103f9826103b8565b602082019050919050565b6000602082019050818103600083015261041d816103e1565b9050919050565b7f596f75206172656e277420746865206f776e6572000000000000000000000000600082015250565b600061045a6014836103a7565b915061046582610424565b602082019050919050565b600060208201905081810360008301526104898161044d565b9050919050565b60006040820190506104a56000830185610287565b6104b26020830184610287565b939250505056fea2646970667358221220e5babd8091f6fbe1ba6507d16532886ff3ae54f0bda5e02103bdbc9aba20505e64736f6c63430008110033",
  "linkReferences": {},
  "deployedLinkReferences": {}
}