{
  "_format": "hh-sol-artifact-1",
  "contractName": "LinkDotContract",
  "sourceName": "contracts/LinkDotContract.sol",
  "abi": [
    {
      "inputs": [
        {
          "internalType": "string",
          "name": "baseURI",
          "type": "string"
        },
        {
          "internalType": "string",
          "name": "badgeName",
          "type": "string"
        },
        {
          "internalType": "string",
          "name": "badgeSymbol",
          "type": "string"
        }
      ],
      "stateMutability": "nonpayable",
      "type": "constructor"
    },
    {
      "anonymous": false,
      "inputs": [
        {
          "indexed": true,
          "internalType": "address",
          "name": "owner",
          "type": "address"
        },
        {
          "indexed": true,
          "internalType": "address",
          "name": "approved",
          "type": "address"
        },
        {
          "indexed": true,
          "internalType": "uint256",
          "name": "tokenId",
          "type": "uint256"
        }
      ],
      "name": "Approval",
      "type": "event"
    },
    {
      "anonymous": false,
      "inputs": [
        {
          "indexed": true,
          "internalType": "address",
          "name": "owner",
          "type": "address"
        },
        {
          "indexed": true,
          "internalType": "address",
          "name": "operator",
          "type": "address"
        },
        {
          "indexed": false,
          "internalType": "bool",
          "name": "approved",
          "type": "bool"
        }
      ],
      "name": "ApprovalForAll",
      "type": "event"
    },
    {
      "anonymous": false,
      "inputs": [
        {
          "indexed": true,
          "internalType": "address",
          "name": "to",
          "type": "address"
        },
        {
          "indexed": true,
          "internalType": "uint256",
          "name": "tokenId",
          "type": "uint256"
        }
      ],
      "name": "Attest",
      "type": "event"
    },
    {
      "anonymous": false,
      "inputs": [
        {
          "indexed": true,
          "internalType": "address",
          "name": "previousOwner",
          "type": "address"
        },
        {
          "indexed": true,
          "internalType": "address",
          "name": "newOwner",
          "type": "address"
        }
      ],
      "name": "OwnershipTransferred",
      "type": "event"
    },
    {
      "anonymous": false,
      "inputs": [
        {
          "indexed": true,
          "internalType": "address",
          "name": "to",
          "type": "address"
        },
        {
          "indexed": true,
          "internalType": "uint256",
          "name": "tokenId",
          "type": "uint256"
        }
      ],
      "name": "Revoke",
      "type": "event"
    },
    {
      "anonymous": false,
      "inputs": [
        {
          "indexed": true,
          "internalType": "address",
          "name": "from",
          "type": "address"
        },
        {
          "indexed": true,
          "internalType": "address",
          "name": "to",
          "type": "address"
        },
        {
          "indexed": true,
          "internalType": "uint256",
          "name": "tokenId",
          "type": "uint256"
        }
      ],
      "name": "Transfer",
      "type": "event"
    },
    {
      "inputs": [
        {
          "internalType": "address",
          "name": "to",
          "type": "address"
        },
        {
          "internalType": "uint256",
          "name": "tokenId",
          "type": "uint256"
        }
      ],
      "name": "approve",
      "outputs": [],
      "stateMutability": "nonpayable",
      "type": "function"
    },
    {
      "inputs": [
        {
          "internalType": "address",
          "name": "owner",
          "type": "address"
        }
      ],
      "name": "balanceOf",
      "outputs": [
        {
          "internalType": "uint256",
          "name": "",
          "type": "uint256"
        }
      ],
      "stateMutability": "view",
      "type": "function"
    },
    {
      "inputs": [],
      "name": "baseTokenURI",
      "outputs": [
        {
          "internalType": "string",
          "name": "",
          "type": "string"
        }
      ],
      "stateMutability": "view",
      "type": "function"
    },
    {
      "inputs": [
        {
          "internalType": "uint256",
          "name": "tokenId",
          "type": "uint256"
        }
      ],
      "name": "burn",
      "outputs": [],
      "stateMutability": "nonpayable",
      "type": "function"
    },
    {
      "inputs": [],
      "name": "claim",
      "outputs": [
        {
          "internalType": "uint256",
          "name": "",
          "type": "uint256"
        }
      ],
      "stateMutability": "nonpayable",
      "type": "function"
    },
    {
      "inputs": [
        {
          "internalType": "uint256",
          "name": "tokenId",
          "type": "uint256"
        }
      ],
      "name": "getApproved",
      "outputs": [
        {
          "internalType": "address",
          "name": "",
          "type": "address"
        }
      ],
      "stateMutability": "view",
      "type": "function"
    },
    {
      "inputs": [
        {
          "internalType": "address",
          "name": "owner",
          "type": "address"
        },
        {
          "internalType": "address",
          "name": "operator",
          "type": "address"
        }
      ],
      "name": "isApprovedForAll",
      "outputs": [
        {
          "internalType": "bool",
          "name": "",
          "type": "bool"
        }
      ],
      "stateMutability": "view",
      "type": "function"
    },
    {
      "inputs": [],
      "name": "name",
      "outputs": [
        {
          "internalType": "string",
          "name": "",
          "type": "string"
        }
      ],
      "stateMutability": "view",
      "type": "function"
    },
    {
      "inputs": [],
      "name": "owner",
      "outputs": [
        {
          "internalType": "address",
          "name": "",
          "type": "address"
        }
      ],
      "stateMutability": "view",
      "type": "function"
    },
    {
      "inputs": [
        {
          "internalType": "uint256",
          "name": "tokenId",
          "type": "uint256"
        }
      ],
      "name": "ownerOf",
      "outputs": [
        {
          "internalType": "address",
          "name": "",
          "type": "address"
        }
      ],
      "stateMutability": "view",
      "type": "function"
    },
    {
      "inputs": [],
      "name": "renounceOwnership",
      "outputs": [],
      "stateMutability": "nonpayable",
      "type": "function"
    },
    {
      "inputs": [
        {
          "internalType": "address",
          "name": "from",
          "type": "address"
        },
        {
          "internalType": "address",
          "name": "to",
          "type": "address"
        },
        {
          "internalType": "uint256",
          "name": "tokenId",
          "type": "uint256"
        }
      ],
      "name": "safeTransferFrom",
      "outputs": [],
      "stateMutability": "nonpayable",
      "type": "function"
    },
    {
      "inputs": [
        {
          "internalType": "address",
          "name": "from",
          "type": "address"
        },
        {
          "internalType": "address",
          "name": "to",
          "type": "address"
        },
        {
          "internalType": "uint256",
          "name": "tokenId",
          "type": "uint256"
        },
        {
          "internalType": "bytes",
          "name": "data",
          "type": "bytes"
        }
      ],
      "name": "safeTransferFrom",
      "outputs": [],
      "stateMutability": "nonpayable",
      "type": "function"
    },
    {
      "inputs": [
        {
          "internalType": "address",
          "name": "operator",
          "type": "address"
        },
        {
          "internalType": "bool",
          "name": "approved",
          "type": "bool"
        }
      ],
      "name": "setApprovalForAll",
      "outputs": [],
      "stateMutability": "nonpayable",
      "type": "function"
    },
    {
      "inputs": [
        {
          "internalType": "string",
          "name": "_baseTokenURI",
          "type": "string"
        }
      ],
      "name": "setBaseURI",
      "outputs": [],
      "stateMutability": "nonpayable",
      "type": "function"
    },
    {
      "inputs": [
        {
          "internalType": "bytes4",
          "name": "interfaceId",
          "type": "bytes4"
        }
      ],
      "name": "supportsInterface",
      "outputs": [
        {
          "internalType": "bool",
          "name": "",
          "type": "bool"
        }
      ],
      "stateMutability": "view",
      "type": "function"
    },
    {
      "inputs": [],
      "name": "symbol",
      "outputs": [
        {
          "internalType": "string",
          "name": "",
          "type": "string"
        }
      ],
      "stateMutability": "view",
      "type": "function"
    },
    {
      "inputs": [
        {
          "internalType": "uint256",
          "name": "tokenId",
          "type": "uint256"
        }
      ],
      "name": "tokenURI",
      "outputs": [
        {
          "internalType": "string",
          "name": "",
          "type": "string"
        }
      ],
      "stateMutability": "view",
      "type": "function"
    },
    {
      "inputs": [
        {
          "internalType": "address",
          "name": "from",
          "type": "address"
        },
        {
          "internalType": "address",
          "name": "to",
          "type": "address"
        },
        {
          "internalType": "uint256",
          "name": "tokenId",
          "type": "uint256"
        }
      ],
      "name": "transferFrom",
      "outputs": [],
      "stateMutability": "nonpayable",
      "type": "function"
    },
    {
      "inputs": [
        {
          "internalType": "address",
          "name": "newOwner",
          "type": "address"
        }
      ],
      "name": "transferOwnership",
      "outputs": [],
      "stateMutability": "nonpayable",
      "type": "function"
    }
  ],
  "bytecode": "0x60806040523480156200001157600080fd5b50604051620038ba380380620038ba8339818101604052810190620000379190620003da565b818181600090816200004a9190620006de565b5080600190816200005c9190620006de565b5050506200007f620000736200009960201b60201c565b620000a160201b60201c565b62000090836200016760201b60201c565b50505062000848565b600033905090565b6000600660009054906101000a900473ffffffffffffffffffffffffffffffffffffffff16905081600660006101000a81548173ffffffffffffffffffffffffffffffffffffffff021916908373ffffffffffffffffffffffffffffffffffffffff1602179055508173ffffffffffffffffffffffffffffffffffffffff168173ffffffffffffffffffffffffffffffffffffffff167f8be0079c531659141344cd1fd0a4f28419497f9722a3daafe3b4186f6b6457e060405160405180910390a35050565b620001776200018c60201b60201c565b80600a9081620001889190620006de565b5050565b6200019c6200009960201b60201c565b73ffffffffffffffffffffffffffffffffffffffff16620001c26200021d60201b60201c565b73ffffffffffffffffffffffffffffffffffffffff16146200021b576040517f08c379a0000000000000000000000000000000000000000000000000000000008152600401620002129062000826565b60405180910390fd5b565b6000600660009054906101000a900473ffffffffffffffffffffffffffffffffffffffff16905090565b6000604051905090565b600080fd5b600080fd5b600080fd5b600080fd5b6000601f19601f8301169050919050565b7f4e487b7100000000000000000000000000000000000000000000000000000000600052604160045260246000fd5b620002b08262000265565b810181811067ffffffffffffffff82111715620002d257620002d162000276565b5b80604052505050565b6000620002e762000247565b9050620002f58282620002a5565b919050565b600067ffffffffffffffff82111562000318576200031762000276565b5b620003238262000265565b9050602081019050919050565b60005b838110156200035057808201518184015260208101905062000333565b60008484015250505050565b6000620003736200036d84620002fa565b620002db565b90508281526020810184848401111562000392576200039162000260565b5b6200039f84828562000330565b509392505050565b600082601f830112620003bf57620003be6200025b565b5b8151620003d18482602086016200035c565b91505092915050565b600080600060608486031215620003f657620003f562000251565b5b600084015167ffffffffffffffff81111562000417576200041662000256565b5b6200042586828701620003a7565b935050602084015167ffffffffffffffff81111562000449576200044862000256565b5b6200045786828701620003a7565b925050604084015167ffffffffffffffff8111156200047b576200047a62000256565b5b6200048986828701620003a7565b9150509250925092565b600081519050919050565b7f4e487b7100000000000000000000000000000000000000000000000000000000600052602260045260246000fd5b60006002820490506001821680620004e657607f821691505b602082108103620004fc57620004fb6200049e565b5b50919050565b60008190508160005260206000209050919050565b60006020601f8301049050919050565b600082821b905092915050565b600060088302620005667fffffffffffffffffffffffffffffffffffffffffffffffffffffffffffffffff8262000527565b62000572868362000527565b95508019841693508086168417925050509392505050565b6000819050919050565b6000819050919050565b6000620005bf620005b9620005b3846200058a565b62000594565b6200058a565b9050919050565b6000819050919050565b620005db836200059e565b620005f3620005ea82620005c6565b84845462000534565b825550505050565b600090565b6200060a620005fb565b62000617818484620005d0565b505050565b5b818110156200063f576200063360008262000600565b6001810190506200061d565b5050565b601f8211156200068e57620006588162000502565b620006638462000517565b8101602085101562000673578190505b6200068b620006828562000517565b8301826200061c565b50505b505050565b600082821c905092915050565b6000620006b36000198460080262000693565b1980831691505092915050565b6000620006ce8383620006a0565b9150826002028217905092915050565b620006e98262000493565b67ffffffffffffffff81111562000705576200070462000276565b5b620007118254620004cd565b6200071e82828562000643565b600060209050601f83116001811462000756576000841562000741578287015190505b6200074d8582620006c0565b865550620007bd565b601f198416620007668662000502565b60005b82811015620007905784890151825560018201915060208501945060208101905062000769565b86831015620007b05784890151620007ac601f891682620006a0565b8355505b6001600288020188555050505b505050505050565b600082825260208201905092915050565b7f4f776e61626c653a2063616c6c6572206973206e6f7420746865206f776e6572600082015250565b60006200080e602083620007c5565b91506200081b82620007d6565b602082019050919050565b600060208201905081810360008301526200084181620007ff565b9050919050565b61306280620008586000396000f3fe608060405234801561001057600080fd5b506004361061012c5760003560e01c806370a08231116100ad578063b88d4fde11610071578063b88d4fde1461031b578063c87b56dd14610337578063d547cfb714610367578063e985e9c514610385578063f2fde38b146103b55761012c565b806370a0823114610289578063715018a6146102b95780638da5cb5b146102c357806395d89b41146102e1578063a22cb465146102ff5761012c565b806342842e0e116100f457806342842e0e146101e757806342966c68146102035780634e71d92d1461021f57806355f804b31461023d5780636352211e146102595761012c565b806301ffc9a71461013157806306fdde0314610161578063081812fc1461017f578063095ea7b3146101af57806323b872dd146101cb575b600080fd5b61014b60048036038101906101469190611dc2565b6103d1565b6040516101589190611e0a565b60405180910390f35b6101696104b3565b6040516101769190611eb5565b60405180910390f35b61019960048036038101906101949190611f0d565b610545565b6040516101a69190611f7b565b60405180910390f35b6101c960048036038101906101c49190611fc2565b61058b565b005b6101e560048036038101906101e09190612002565b6106a2565b005b61020160048036038101906101fc9190612002565b610702565b005b61021d60048036038101906102189190611f0d565b610722565b005b6102276107a4565b6040516102349190612064565b60405180910390f35b610257600480360381019061025291906121b4565b610863565b005b610273600480360381019061026e9190611f0d565b61087e565b6040516102809190611f7b565b60405180910390f35b6102a3600480360381019061029e91906121fd565b61092f565b6040516102b09190612064565b60405180910390f35b6102c16109e6565b005b6102cb6109fa565b6040516102d89190611f7b565b60405180910390f35b6102e9610a24565b6040516102f69190611eb5565b60405180910390f35b61031960048036038101906103149190612256565b610ab6565b005b61033560048036038101906103309190612337565b610acc565b005b610351600480360381019061034c9190611f0d565b610b2e565b60405161035e9190611eb5565b60405180910390f35b61036f610b40565b60405161037c9190611eb5565b60405180910390f35b61039f600480360381019061039a91906123ba565b610bce565b6040516103ac9190611e0a565b60405180910390f35b6103cf60048036038101906103ca91906121fd565b610c62565b005b60007f80ac58cd000000000000000000000000000000000000000000000000000000007bffffffffffffffffffffffffffffffffffffffffffffffffffffffff1916827bffffffffffffffffffffffffffffffffffffffffffffffffffffffff1916148061049c57507f5b5e139f000000000000000000000000000000000000000000000000000000007bffffffffffffffffffffffffffffffffffffffffffffffffffffffff1916827bffffffffffffffffffffffffffffffffffffffffffffffffffffffff1916145b806104ac57506104ab82610ce5565b5b9050919050565b6060600080546104c290612429565b80601f01602080910402602001604051908101604052809291908181526020018280546104ee90612429565b801561053b5780601f106105105761010080835404028352916020019161053b565b820191906000526020600020905b81548152906001019060200180831161051e57829003601f168201915b5050505050905090565b600061055082610d4f565b6004600083815260200190815260200160002060009054906101000a900473ffffffffffffffffffffffffffffffffffffffff169050919050565b60006105968261087e565b90508073ffffffffffffffffffffffffffffffffffffffff168373ffffffffffffffffffffffffffffffffffffffff1603610606576040517f08c379a00000000000000000000000000000000000000000000000000000000081526004016105fd906124cc565b60405180910390fd5b8073ffffffffffffffffffffffffffffffffffffffff16610625610d9a565b73ffffffffffffffffffffffffffffffffffffffff16148061065457506106538161064e610d9a565b610bce565b5b610693576040517f08c379a000000000000000000000000000000000000000000000000000000000815260040161068a9061255e565b60405180910390fd5b61069d8383610da2565b505050565b6106b36106ad610d9a565b82610e5b565b6106f2576040517f08c379a00000000000000000000000000000000000000000000000000000000081526004016106e9906125f0565b60405180910390fd5b6106fd838383610ef0565b505050565b61071d83838360405180602001604052806000815250610acc565b505050565b3373ffffffffffffffffffffffffffffffffffffffff166107428261087e565b73ffffffffffffffffffffffffffffffffffffffff1614610798576040517f08c379a000000000000000000000000000000000000000000000000000000000815260040161078f90612682565b60405180910390fd5b6107a181611156565b50565b600033600860006107b56007611162565b815260200190815260200160002060006101000a81548173ffffffffffffffffffffffffffffffffffffffff021916908373ffffffffffffffffffffffffffffffffffffffff1602179055506108143361080f6007611162565b611170565b61081e600761118e565b600960003373ffffffffffffffffffffffffffffffffffffffff1673ffffffffffffffffffffffffffffffffffffffff16815260200190815260200160002054905090565b61086b6111a4565b80600a908161087a919061284e565b5050565b6000806002600084815260200190815260200160002060009054906101000a900473ffffffffffffffffffffffffffffffffffffffff169050600073ffffffffffffffffffffffffffffffffffffffff168173ffffffffffffffffffffffffffffffffffffffff1603610926576040517f08c379a000000000000000000000000000000000000000000000000000000000815260040161091d9061296c565b60405180910390fd5b80915050919050565b60008073ffffffffffffffffffffffffffffffffffffffff168273ffffffffffffffffffffffffffffffffffffffff160361099f576040517f08c379a0000000000000000000000000000000000000000000000000000000008152600401610996906129fe565b60405180910390fd5b600360008373ffffffffffffffffffffffffffffffffffffffff1673ffffffffffffffffffffffffffffffffffffffff168152602001908152602001600020549050919050565b6109ee6111a4565b6109f86000611222565b565b6000600660009054906101000a900473ffffffffffffffffffffffffffffffffffffffff16905090565b606060018054610a3390612429565b80601f0160208091040260200160405190810160405280929190818152602001828054610a5f90612429565b8015610aac5780601f10610a8157610100808354040283529160200191610aac565b820191906000526020600020905b815481529060010190602001808311610a8f57829003601f168201915b5050505050905090565b610ac8610ac1610d9a565b83836112e8565b5050565b610add610ad7610d9a565b83610e5b565b610b1c576040517f08c379a0000000000000000000000000000000000000000000000000000000008152600401610b13906125f0565b60405180910390fd5b610b2884848484611454565b50505050565b6060610b39826114b0565b9050919050565b600a8054610b4d90612429565b80601f0160208091040260200160405190810160405280929190818152602001828054610b7990612429565b8015610bc65780601f10610b9b57610100808354040283529160200191610bc6565b820191906000526020600020905b815481529060010190602001808311610ba957829003601f168201915b505050505081565b6000600560008473ffffffffffffffffffffffffffffffffffffffff1673ffffffffffffffffffffffffffffffffffffffff16815260200190815260200160002060008373ffffffffffffffffffffffffffffffffffffffff1673ffffffffffffffffffffffffffffffffffffffff16815260200190815260200160002060009054906101000a900460ff16905092915050565b610c6a6111a4565b600073ffffffffffffffffffffffffffffffffffffffff168173ffffffffffffffffffffffffffffffffffffffff1603610cd9576040517f08c379a0000000000000000000000000000000000000000000000000000000008152600401610cd090612a90565b60405180910390fd5b610ce281611222565b50565b60007f01ffc9a7000000000000000000000000000000000000000000000000000000007bffffffffffffffffffffffffffffffffffffffffffffffffffffffff1916827bffffffffffffffffffffffffffffffffffffffffffffffffffffffff1916149050919050565b610d5881611583565b610d97576040517f08c379a0000000000000000000000000000000000000000000000000000000008152600401610d8e9061296c565b60405180910390fd5b50565b600033905090565b816004600083815260200190815260200160002060006101000a81548173ffffffffffffffffffffffffffffffffffffffff021916908373ffffffffffffffffffffffffffffffffffffffff160217905550808273ffffffffffffffffffffffffffffffffffffffff16610e158361087e565b73ffffffffffffffffffffffffffffffffffffffff167f8c5be1e5ebec7d5bd14f71427d1e84f3dd0314c0f7b2291e5b200ac8c7c3b92560405160405180910390a45050565b600080610e678361087e565b90508073ffffffffffffffffffffffffffffffffffffffff168473ffffffffffffffffffffffffffffffffffffffff161480610ea95750610ea88185610bce565b5b80610ee757508373ffffffffffffffffffffffffffffffffffffffff16610ecf84610545565b73ffffffffffffffffffffffffffffffffffffffff16145b91505092915050565b8273ffffffffffffffffffffffffffffffffffffffff16610f108261087e565b73ffffffffffffffffffffffffffffffffffffffff1614610f66576040517f08c379a0000000000000000000000000000000000000000000000000000000008152600401610f5d90612b22565b60405180910390fd5b600073ffffffffffffffffffffffffffffffffffffffff168273ffffffffffffffffffffffffffffffffffffffff1603610fd5576040517f08c379a0000000000000000000000000000000000000000000000000000000008152600401610fcc90612bb4565b60405180910390fd5b610fe08383836115ef565b610feb600082610da2565b6001600360008573ffffffffffffffffffffffffffffffffffffffff1673ffffffffffffffffffffffffffffffffffffffff168152602001908152602001600020600082825461103b9190612c03565b925050819055506001600360008473ffffffffffffffffffffffffffffffffffffffff1673ffffffffffffffffffffffffffffffffffffffff16815260200190815260200160002060008282546110929190612c37565b92505081905550816002600083815260200190815260200160002060006101000a81548173ffffffffffffffffffffffffffffffffffffffff021916908373ffffffffffffffffffffffffffffffffffffffff160217905550808273ffffffffffffffffffffffffffffffffffffffff168473ffffffffffffffffffffffffffffffffffffffff167fddf252ad1be2c89b69c2b068fc378daa952ba7f163c4a11628f55a4df523b3ef60405160405180910390a461115183838361169a565b505050565b61115f81611796565b50565b600081600001549050919050565b61118a8282604051806020016040528060008152506118b3565b5050565b6001816000016000828254019250508190555050565b6111ac610d9a565b73ffffffffffffffffffffffffffffffffffffffff166111ca6109fa565b73ffffffffffffffffffffffffffffffffffffffff1614611220576040517f08c379a000000000000000000000000000000000000000000000000000000000815260040161121790612cb7565b60405180910390fd5b565b6000600660009054906101000a900473ffffffffffffffffffffffffffffffffffffffff16905081600660006101000a81548173ffffffffffffffffffffffffffffffffffffffff021916908373ffffffffffffffffffffffffffffffffffffffff1602179055508173ffffffffffffffffffffffffffffffffffffffff168173ffffffffffffffffffffffffffffffffffffffff167f8be0079c531659141344cd1fd0a4f28419497f9722a3daafe3b4186f6b6457e060405160405180910390a35050565b8173ffffffffffffffffffffffffffffffffffffffff168373ffffffffffffffffffffffffffffffffffffffff1603611356576040517f08c379a000000000000000000000000000000000000000000000000000000000815260040161134d90612d23565b60405180910390fd5b80600560008573ffffffffffffffffffffffffffffffffffffffff1673ffffffffffffffffffffffffffffffffffffffff16815260200190815260200160002060008473ffffffffffffffffffffffffffffffffffffffff1673ffffffffffffffffffffffffffffffffffffffff16815260200190815260200160002060006101000a81548160ff0219169083151502179055508173ffffffffffffffffffffffffffffffffffffffff168373ffffffffffffffffffffffffffffffffffffffff167f17307eab39ab6107e8899845ad3d59bd9653f200f220920489ca2b5937696c31836040516114479190611e0a565b60405180910390a3505050565b61145f848484610ef0565b61146b8484848461190e565b6114aa576040517f08c379a00000000000000000000000000000000000000000000000000000000081526004016114a190612db5565b60405180910390fd5b50505050565b60606114f16040518060400160405280600781526020017f746f6b656e49640000000000000000000000000000000000000000000000000081525083611a95565b600a80546114fe90612429565b80601f016020809104026020016040519081016040528092919081815260200182805461152a90612429565b80156115775780601f1061154c57610100808354040283529160200191611577565b820191906000526020600020905b81548152906001019060200180831161155a57829003601f168201915b50505050509050919050565b60008073ffffffffffffffffffffffffffffffffffffffff166002600084815260200190815260200160002060009054906101000a900473ffffffffffffffffffffffffffffffffffffffff1673ffffffffffffffffffffffffffffffffffffffff1614159050919050565b600073ffffffffffffffffffffffffffffffffffffffff168373ffffffffffffffffffffffffffffffffffffffff1614806116565750600073ffffffffffffffffffffffffffffffffffffffff168273ffffffffffffffffffffffffffffffffffffffff16145b611695576040517f08c379a000000000000000000000000000000000000000000000000000000000815260040161168c90612e21565b60405180910390fd5b505050565b600073ffffffffffffffffffffffffffffffffffffffff168373ffffffffffffffffffffffffffffffffffffffff160361171757808273ffffffffffffffffffffffffffffffffffffffff167fe9274a84b19e9428826de6bae8c48329354f8f0e73f771b97cae2d9dccd45a2760405160405180910390a3611791565b600073ffffffffffffffffffffffffffffffffffffffff168273ffffffffffffffffffffffffffffffffffffffff160361179057808273ffffffffffffffffffffffffffffffffffffffff167fec9ab91322523c899ede7830ec9bfc992b5981cdcc27b91162fb23de5791117b60405160405180910390a35b5b505050565b60006117a18261087e565b90506117af816000846115ef565b6117ba600083610da2565b6001600360008373ffffffffffffffffffffffffffffffffffffffff1673ffffffffffffffffffffffffffffffffffffffff168152602001908152602001600020600082825461180a9190612c03565b925050819055506002600083815260200190815260200160002060006101000a81549073ffffffffffffffffffffffffffffffffffffffff021916905581600073ffffffffffffffffffffffffffffffffffffffff168273ffffffffffffffffffffffffffffffffffffffff167fddf252ad1be2c89b69c2b068fc378daa952ba7f163c4a11628f55a4df523b3ef60405160405180910390a46118af8160008461169a565b5050565b6118bd8383611b31565b6118ca600084848461190e565b611909576040517f08c379a000000000000000000000000000000000000000000000000000000000815260040161190090612db5565b60405180910390fd5b505050565b600061192f8473ffffffffffffffffffffffffffffffffffffffff16611d0a565b15611a88578373ffffffffffffffffffffffffffffffffffffffff1663150b7a02611958610d9a565b8786866040518563ffffffff1660e01b815260040161197a9493929190612e96565b6020604051808303816000875af19250505080156119b657506040513d601f19601f820116820180604052508101906119b39190612ef7565b60015b611a38573d80600081146119e6576040519150601f19603f3d011682016040523d82523d6000602084013e6119eb565b606091505b506000815103611a30576040517f08c379a0000000000000000000000000000000000000000000000000000000008152600401611a2790612db5565b60405180910390fd5b805181602001fd5b63150b7a0260e01b7bffffffffffffffffffffffffffffffffffffffffffffffffffffffff1916817bffffffffffffffffffffffffffffffffffffffffffffffffffffffff191614915050611a8d565b600190505b949350505050565b611b2d8282604051602401611aab929190612f24565b6040516020818303038152906040527fb60e72cc000000000000000000000000000000000000000000000000000000007bffffffffffffffffffffffffffffffffffffffffffffffffffffffff19166020820180517bffffffffffffffffffffffffffffffffffffffffffffffffffffffff8381831617835250505050611d2d565b5050565b600073ffffffffffffffffffffffffffffffffffffffff168273ffffffffffffffffffffffffffffffffffffffff1603611ba0576040517f08c379a0000000000000000000000000000000000000000000000000000000008152600401611b9790612fa0565b60405180910390fd5b611ba981611583565b15611be9576040517f08c379a0000000000000000000000000000000000000000000000000000000008152600401611be09061300c565b60405180910390fd5b611bf5600083836115ef565b6001600360008473ffffffffffffffffffffffffffffffffffffffff1673ffffffffffffffffffffffffffffffffffffffff1681526020019081526020016000206000828254611c459190612c37565b92505081905550816002600083815260200190815260200160002060006101000a81548173ffffffffffffffffffffffffffffffffffffffff021916908373ffffffffffffffffffffffffffffffffffffffff160217905550808273ffffffffffffffffffffffffffffffffffffffff16600073ffffffffffffffffffffffffffffffffffffffff167fddf252ad1be2c89b69c2b068fc378daa952ba7f163c4a11628f55a4df523b3ef60405160405180910390a4611d066000838361169a565b5050565b6000808273ffffffffffffffffffffffffffffffffffffffff163b119050919050565b60008151905060006a636f6e736f6c652e6c6f679050602083016000808483855afa5050505050565b6000604051905090565b600080fd5b600080fd5b60007fffffffff0000000000000000000000000000000000000000000000000000000082169050919050565b611d9f81611d6a565b8114611daa57600080fd5b50565b600081359050611dbc81611d96565b92915050565b600060208284031215611dd857611dd7611d60565b5b6000611de684828501611dad565b91505092915050565b60008115159050919050565b611e0481611def565b82525050565b6000602082019050611e1f6000830184611dfb565b92915050565b600081519050919050565b600082825260208201905092915050565b60005b83811015611e5f578082015181840152602081019050611e44565b60008484015250505050565b6000601f19601f8301169050919050565b6000611e8782611e25565b611e918185611e30565b9350611ea1818560208601611e41565b611eaa81611e6b565b840191505092915050565b60006020820190508181036000830152611ecf8184611e7c565b905092915050565b6000819050919050565b611eea81611ed7565b8114611ef557600080fd5b50565b600081359050611f0781611ee1565b92915050565b600060208284031215611f2357611f22611d60565b5b6000611f3184828501611ef8565b91505092915050565b600073ffffffffffffffffffffffffffffffffffffffff82169050919050565b6000611f6582611f3a565b9050919050565b611f7581611f5a565b82525050565b6000602082019050611f906000830184611f6c565b92915050565b611f9f81611f5a565b8114611faa57600080fd5b50565b600081359050611fbc81611f96565b92915050565b60008060408385031215611fd957611fd8611d60565b5b6000611fe785828601611fad565b9250506020611ff885828601611ef8565b9150509250929050565b60008060006060848603121561201b5761201a611d60565b5b600061202986828701611fad565b935050602061203a86828701611fad565b925050604061204b86828701611ef8565b9150509250925092565b61205e81611ed7565b82525050565b60006020820190506120796000830184612055565b92915050565b600080fd5b600080fd5b7f4e487b7100000000000000000000000000000000000000000000000000000000600052604160045260246000fd5b6120c182611e6b565b810181811067ffffffffffffffff821117156120e0576120df612089565b5b80604052505050565b60006120f3611d56565b90506120ff82826120b8565b919050565b600067ffffffffffffffff82111561211f5761211e612089565b5b61212882611e6b565b9050602081019050919050565b82818337600083830152505050565b600061215761215284612104565b6120e9565b90508281526020810184848401111561217357612172612084565b5b61217e848285612135565b509392505050565b600082601f83011261219b5761219a61207f565b5b81356121ab848260208601612144565b91505092915050565b6000602082840312156121ca576121c9611d60565b5b600082013567ffffffffffffffff8111156121e8576121e7611d65565b5b6121f484828501612186565b91505092915050565b60006020828403121561221357612212611d60565b5b600061222184828501611fad565b91505092915050565b61223381611def565b811461223e57600080fd5b50565b6000813590506122508161222a565b92915050565b6000806040838503121561226d5761226c611d60565b5b600061227b85828601611fad565b925050602061228c85828601612241565b9150509250929050565b600067ffffffffffffffff8211156122b1576122b0612089565b5b6122ba82611e6b565b9050602081019050919050565b60006122da6122d584612296565b6120e9565b9050828152602081018484840111156122f6576122f5612084565b5b612301848285612135565b509392505050565b600082601f83011261231e5761231d61207f565b5b813561232e8482602086016122c7565b91505092915050565b6000806000806080858703121561235157612350611d60565b5b600061235f87828801611fad565b945050602061237087828801611fad565b935050604061238187828801611ef8565b925050606085013567ffffffffffffffff8111156123a2576123a1611d65565b5b6123ae87828801612309565b91505092959194509250565b600080604083850312156123d1576123d0611d60565b5b60006123df85828601611fad565b92505060206123f085828601611fad565b9150509250929050565b7f4e487b7100000000000000000000000000000000000000000000000000000000600052602260045260246000fd5b6000600282049050600182168061244157607f821691505b602082108103612454576124536123fa565b5b50919050565b7f4552433732313a20617070726f76616c20746f2063757272656e74206f776e6560008201527f7200000000000000000000000000000000000000000000000000000000000000602082015250565b60006124b6602183611e30565b91506124c18261245a565b604082019050919050565b600060208201905081810360008301526124e5816124a9565b9050919050565b7f4552433732313a20617070726f76652063616c6c6572206973206e6f7420746f60008201527f6b656e206f776e6572206e6f7220617070726f76656420666f7220616c6c0000602082015250565b6000612548603e83611e30565b9150612553826124ec565b604082019050919050565b600060208201905081810360008301526125778161253b565b9050919050565b7f4552433732313a2063616c6c6572206973206e6f7420746f6b656e206f776e6560008201527f72206e6f7220617070726f766564000000000000000000000000000000000000602082015250565b60006125da602e83611e30565b91506125e58261257e565b604082019050919050565b60006020820190508181036000830152612609816125cd565b9050919050565b7f4f6e6c79206f776e6572206f662074686520746f6b656e2063616e206275726e60008201527f2069740000000000000000000000000000000000000000000000000000000000602082015250565b600061266c602383611e30565b915061267782612610565b604082019050919050565b6000602082019050818103600083015261269b8161265f565b9050919050565b60008190508160005260206000209050919050565b60006020601f8301049050919050565b600082821b905092915050565b6000600883026127047fffffffffffffffffffffffffffffffffffffffffffffffffffffffffffffffff826126c7565b61270e86836126c7565b95508019841693508086168417925050509392505050565b6000819050919050565b600061274b61274661274184611ed7565b612726565b611ed7565b9050919050565b6000819050919050565b61276583612730565b61277961277182612752565b8484546126d4565b825550505050565b600090565b61278e612781565b61279981848461275c565b505050565b5b818110156127bd576127b2600082612786565b60018101905061279f565b5050565b601f821115612802576127d3816126a2565b6127dc846126b7565b810160208510156127eb578190505b6127ff6127f7856126b7565b83018261279e565b50505b505050565b600082821c905092915050565b600061282560001984600802612807565b1980831691505092915050565b600061283e8383612814565b9150826002028217905092915050565b61285782611e25565b67ffffffffffffffff8111156128705761286f612089565b5b61287a8254612429565b6128858282856127c1565b600060209050601f8311600181146128b857600084156128a6578287015190505b6128b08582612832565b865550612918565b601f1984166128c6866126a2565b60005b828110156128ee578489015182556001820191506020850194506020810190506128c9565b8683101561290b5784890151612907601f891682612814565b8355505b6001600288020188555050505b505050505050565b7f4552433732313a20696e76616c696420746f6b656e2049440000000000000000600082015250565b6000612956601883611e30565b915061296182612920565b602082019050919050565b6000602082019050818103600083015261298581612949565b9050919050565b7f4552433732313a2061646472657373207a65726f206973206e6f74206120766160008201527f6c6964206f776e65720000000000000000000000000000000000000000000000602082015250565b60006129e8602983611e30565b91506129f38261298c565b604082019050919050565b60006020820190508181036000830152612a17816129db565b9050919050565b7f4f776e61626c653a206e6577206f776e657220697320746865207a65726f206160008201527f6464726573730000000000000000000000000000000000000000000000000000602082015250565b6000612a7a602683611e30565b9150612a8582612a1e565b604082019050919050565b60006020820190508181036000830152612aa981612a6d565b9050919050565b7f4552433732313a207472616e736665722066726f6d20696e636f72726563742060008201527f6f776e6572000000000000000000000000000000000000000000000000000000602082015250565b6000612b0c602583611e30565b9150612b1782612ab0565b604082019050919050565b60006020820190508181036000830152612b3b81612aff565b9050919050565b7f4552433732313a207472616e7366657220746f20746865207a65726f2061646460008201527f7265737300000000000000000000000000000000000000000000000000000000602082015250565b6000612b9e602483611e30565b9150612ba982612b42565b604082019050919050565b60006020820190508181036000830152612bcd81612b91565b9050919050565b7f4e487b7100000000000000000000000000000000000000000000000000000000600052601160045260246000fd5b6000612c0e82611ed7565b9150612c1983611ed7565b9250828203905081811115612c3157612c30612bd4565b5b92915050565b6000612c4282611ed7565b9150612c4d83611ed7565b9250828201905080821115612c6557612c64612bd4565b5b92915050565b7f4f776e61626c653a2063616c6c6572206973206e6f7420746865206f776e6572600082015250565b6000612ca1602083611e30565b9150612cac82612c6b565b602082019050919050565b60006020820190508181036000830152612cd081612c94565b9050919050565b7f4552433732313a20617070726f766520746f2063616c6c657200000000000000600082015250565b6000612d0d601983611e30565b9150612d1882612cd7565b602082019050919050565b60006020820190508181036000830152612d3c81612d00565b9050919050565b7f4552433732313a207472616e7366657220746f206e6f6e20455243373231526560008201527f63656976657220696d706c656d656e7465720000000000000000000000000000602082015250565b6000612d9f603283611e30565b9150612daa82612d43565b604082019050919050565b60006020820190508181036000830152612dce81612d92565b9050919050565b7f4e6f7420616c6c6f77656420746f207472616e7366657220746f6b656e000000600082015250565b6000612e0b601d83611e30565b9150612e1682612dd5565b602082019050919050565b60006020820190508181036000830152612e3a81612dfe565b9050919050565b600081519050919050565b600082825260208201905092915050565b6000612e6882612e41565b612e728185612e4c565b9350612e82818560208601611e41565b612e8b81611e6b565b840191505092915050565b6000608082019050612eab6000830187611f6c565b612eb86020830186611f6c565b612ec56040830185612055565b8181036060830152612ed78184612e5d565b905095945050505050565b600081519050612ef181611d96565b92915050565b600060208284031215612f0d57612f0c611d60565b5b6000612f1b84828501612ee2565b91505092915050565b60006040820190508181036000830152612f3e8185611e7c565b9050612f4d6020830184612055565b9392505050565b7f4552433732313a206d696e7420746f20746865207a65726f2061646472657373600082015250565b6000612f8a602083611e30565b9150612f9582612f54565b602082019050919050565b60006020820190508181036000830152612fb981612f7d565b9050919050565b7f4552433732313a20746f6b656e20616c7265616479206d696e74656400000000600082015250565b6000612ff6601c83611e30565b915061300182612fc0565b602082019050919050565b6000602082019050818103600083015261302581612fe9565b905091905056fea2646970667358221220b84a74ff0308feba13014bd558ce978cb21f8b20669e61e9cfc90698163ef46364736f6c63430008110033",
  "linkReferences": {},
  "deployedLinkReferences": {}
}